:020000040800F2
:10000000D8120020E5020008195C0008E546000847
:10001000155C0008650700087185000800000000F5
:10002000000000000000000000000000CD5C00089F
:1000300069070008000000001D5C0008D15C000892
:10004000FF020008FF020008FF020008FF0200088C
:10005000FF020008FF020008FF020008FF0200087C
:10006000FF020008FF020008FF020008FF0200086C
:10007000FF020008FF020008FF020008FF0200085C
:10008000FF02000800000000FF020008FF02000855
:1000900019840008FF020008FF020008FF020008A0
:1000A000FF020008FF020008FF020008FF0200082C
:1000B000615D0008FF020008FF020008FF0200085F
:1000C000FF020008FF020008FF020008FF0200080C
:1000D000FF020008FF020008FF020008FF020008FC
:1000E000FF020008FF020008FF020008FF020008EC
:1000F000FF020008FF020008FF02000800000000E5
:1001000000000000FF02000800000000FF020008DD
:10011000FF020008000000006D5D0008FF020008FB
:10012000FF020008FF020008FF020008FF020008AB
:10013000FF0200080000000000000000FF020008AD
:10014000FF020008FF02000800000000000000009D
:10015000000000000000000000000000000000009F
:10016000000000000000000000000000FF02000886
:10017000FF02000800000000000000000000000076
:1001800000000000FF020008000000000000000066
:10019000000000000000000000000000000000005F
:1001A0000000000000000000FF020008FF0200083D
:1001B000FF020008FF020008FF0200080000000024
:1001C00000000000FF020008000000000000000026
:1001D000FF020008FF02000800F002F800F072F8C9
:1001E00014A696E8000CB244B344DA4501D100F0FD
:1001F00069F8BAE80F000FA696E83000A5EB0405F1
:1002000004EB0607AAEB0704A7F101074FEA15154F
:100210004FEA3414A4F10104AC4201D300F052F8C7
:1002200013F0010F18BFFB1A43F0010300F001F8AF
:10023000DBE7184774860000948600000A444FF0FC
:10024000000C10F8013B13F0070408BF10F8014B35
:100250001D1108BF10F8015B641E05D010F8016B7A
:10026000641E01F8016BF9D113F0080F1EBF10F8DE
:10027000014BAD1C0C1B09D16D1E58BF01F801CB01
:10028000FAD505E014F8016B01F8016B6D1EF9D584
:100290009142D6D37047000070470000002300242D
:1002A00000250026103A28BF78C1FBD8520728BF86
:1002B00030C148BF0B6070471FB508F0BFFA1FBDC3
:1002C00010B510BD00F0D0F81146FFF7F5FF08F0AB
:1002D00051F900F0EEF803B4FFF7F2FF03BC00F0B1
:1002E000F5F800000948804709480047FEE7FEE7A7
:1002F000FEE7FEE7FEE7FEE7FEE7FEE7FEE7FEE7D6
:1003000004480549054A064B704700004D5D00084A
:10031000D9010008D80C0020D8120020D80E0020E7
:10032000D80E002053EA020C00F069802DE9F04B52
:100330004FF00006002B1FBFB3FA83F503FA05F454
:1003400024FA05F65E4012BF1643B2FA82F502FAAD
:1003500005F4C5F120051EBF22FA05FC44EA0C0491
:10036000203556EA044C4FEA144418BF641C4FF081
:1003700000084FF00009904271EB030C39D30029BB
:1003800019BFB1FA81F701FA07F6B0FA80F700FA5F
:1003900007F6C7F120071EBF20FA07FC46EA0C0645
:1003A0002037B6FBF4FCA7EB0507103F07F01F0B47
:1003B000CBF120062CFA06F60CFA0BFB44BFB34631
:1003C0000026202FA4BF5E464FF0000B5BEA060C10
:1003D00008BF4FF0010B19EB0B0948EB0608ABFB0C
:1003E000027C06FB02CC0BFB03CCC01B71EB0C01A7
:1003F000C1E70B46024641464846BDE8F08B13B5BF
:10040000084318BF4FF0FF300146AFF30080BDE84E
:100410001C4070474FF0000200B5134694469646C4
:10042000203922BFA0E80C50A0E80C50B1F1200107
:10043000BFF4F7AF090728BFA0E80C5048BF0CC0B5
:100440005DF804EB890028BF40F8042B08BF704713
:1004500048BF20F8022B11F0804F18BF00F8012B85
:100460007047704770477047754600F02BF8AE46EE
:1004700005006946534620F00700854618B020B5B0
:10048000FFF73EFFBDE820404FF000064FF00007A9
:100490004FF000084FF0000BAC46ACE8C009ACE8E8
:1004A000C009ACE8C009ACE8C00921F007018D46DD
:1004B000704710B50446AFF300802046BDE81040F9
:1004C000FFF709BF00487047C0010020014918200C
:1004D000ABBEFEE7260002007047000070B5044680
:1004E00000688268836802F0040203F00803D218EF
:1004F00000F0BA80C26892016ED5627F012A6BD18A
:10050000227F012A68D10168490661D40121CAF21B
:100510004031026852065BD40268520658D4026821
:1005200052065CBF02685FEA426251D4026852061A
:100530005CBF02685FEA42624AD4026852065CBF4E
:1005400002685FEA426243D4026852065CBF0268F6
:100550005FEA42623CD4026852065CBF02685FEA0E
:10056000426235D4026852065CBF02685FEA4262AA
:100570002ED4026852065CBF02685FEA426227D44A
:10058000026852065CBF02685FEA426220D40268D9
:1005900052065CBF02685FEA426219D402685206E2
:1005A0005CBF02685FEA426212D4026852065CBF16
:1005B00002685FEA42620BD4026852065CBF0268BE
:1005C0005FEA426204D41B3944D002685206A0D5C7
:1005D00040210160012105E0022903D10221082602
:1005E00012E000BF826852070AD58268920707D4DA
:1005F00082684FF6C073C7F6FF731A4010328260EC
:1006000001294FF0040610D0826812070AD58268CB
:10061000920707D482684FF6C073C7F6FF731A407B
:1006200020328260032908BF0C2600F0A3FE216857
:100630008968314218D0054603E000BF8068304227
:1006400012D000F097FE411B20680629F6D381687E
:100650003142F3D0E06D40F01000E065206E40F0D4
:1006600001002066012070BD002070BD70B582B011
:1006700004460020019021688A68D20711D14FF604
:10068000C076C7F6FF76886806F17F0210420BD06D
:10069000E06D40F01000E065206E40F00100206643
:1006A000012002B070BD00BF8868304040F00100FA
:1006B000886040F20830C5F200000068000221D4D2
:1006C00000F058FE21680A68D20717D1054602E0FB
:1006D0000868C00712D18868C00704D18868304014
:1006E00040F00100886000F045FE401B21680328AF
:1006F000EED30868C007EBD1CAE700BF002002B004
:1007000070BD00BF40F2A400C2F20000006842F6D3
:1007100063518009C0F23E51A0FB0101880900EB42
:1007200040000C2101EB8000019001980028C7D007
:1007300001980138019001980028C1D00198013832
:10074000019001980028BBD00198013801900198D0
:100750000028B5D001980138019001980028E7D110
:10076000AEE70000FEE7000070470000EFF31080E6
:1007700072B600BFFEE7000090F85820012A04BFBF
:100780000220704770B582B0002201920092026888
:10079000B2F1A04F30D140F208324FF6006E4FF662
:1007A0000055C5F20002CFF6FF7ECFF6FF7552F876
:1007B0000E40535923435B071ED4D1F800C0136881
:1007C000BCF1000F23F4604424D04B6890F83860EB
:1007D00043EA463323431360535952F80E603343C0
:1007E000DB0723D1136840F61F768968B3431943AA
:1007F00041EA0C0119E000BFC16D41F02001C16563
:100800000121002280F8582002B0BDE8704008465F
:10081000704700BF1460515952F80E301943C90790
:1008200004D1116840F61F73994311600021E8E775
:10083000F0B581B00022009290F85820012A03D12F
:100840000221084601B0F0BD0123076880F8583046
:10085000BB685B0734D4D1E900351F26C5F30124FA
:1008600007EB8404226B05F01F05AE40C3F38463DD
:10087000B243AB401A432263BA68BB6802F0040279
:1008800003F00803D21840F0BC800A6807F1140393
:100890000426C2F34064D1F808E006EAD25C53F8BB
:1008A0002440C2F304550722AA40BEF1004F24EAB7
:1008B00002040BD143F80C401A6842F000430DE0EB
:1008C000C16D41F02001C165012178E10EFA05F208
:1008D000224343F80C201A6822F000437B61D1E9DF
:1008E0000435FC68042B5FD13A6E3A6E0B68C2F394
:1008F000846293FAA3F6C3F3846C6FF3DF43B6FA12
:1009000086F5002B2C464FF6FF7E08BF6446A242B8
:10091000C0F2070E0CD13A6E22F000423A660A6825
:1009200002EA0E03C2F3846C92FAA2F2B2FA82F5E2
:100930007A6E7A6E002BC2F384622C4608BF64463E
:10094000A2420CD17A6E22F000427A660A6802EA6C
:100950000E03C2F3846C92FAA2F2B2FA82F5BA6E76
:10096000BA6E002BC2F384622C4608BF6446A242D2
:100970000CD1BA6E22F00042BA660A6802EA0E038F
:10098000C2F3846C92FAA2F2B2FA82F5FA6EFA6EAF
:10099000002BC2F3846208BF6546AA4231D1FA6EC9
:1009A00022F00042FA662CE0062202EA940205FADE
:1009B00002FC0E6807F1600555F823404FF2000273
:1009C000C0F2FF3206F0F846224046EA0C063243F7
:1009D00042F0004245F823200A698B6955F82260ED
:1009E00026F08076334345F822300A690B7F55F8AC
:1009F0002260012B26F0007608BF06F1007645F84C
:100A00002260BA680D68D20750D1CA68D7F8B060C2
:100A10002B466FF3DF4326EA030C4FF6FF7602F016
:100A20001804C0F20706E64000242E40C4F27F04FA
:100A300046EA0C06A242C7F8B06037D193B195FAE6
:100A4000A5F2B2FA82F2013202F01E03092B02F083
:100A50001F0310D801229A4003EB430342EA0353D9
:100A600015E000BF012202EB956202F01E030A2B83
:100A700002F01F03EED3012200269A4003EB43034A
:100A8000CFF6206606EB03531A4342F00073C3F31C
:100A9000406607EB86068A687569C3F3045307242A
:100AA0009C40A5439A402A4372610D680021C8F218
:100AB00008010D4200F0828040F2083CC5F2000CB3
:100AC000DCF800400021CCF221318D4204F0E07EC0
:100AD00004D01021C9F2C0018D4241D1B7F1A04F1D
:100AE0004FF0000108BF14F4000268D1DCF80010D8
:100AF00042F6635221F0E07141EA0E0141F4000137
:100B0000CCF8001040F2A401C2F200010968C0F262
:100B10003E528909A1FB0212910901EB41010C220D
:100B200002EB810100910099002947D00099013919
:100B300000910099002941D0009901390091009954
:100B4000E1B30099013900910099B9B300990139D5
:100B50000091009900294FF00001E7D12FE000BF7C
:100B60000021CCF252718D4210D10021B1EB1E6FE9
:100B70000CD1ACF502718F4220D0DCF8001021F0CE
:100B8000E07141EA0E0141F0807115E0ACF50271AF
:100B90008F424FF0000112D00022CCF684329542F1
:100BA00008BF14F480020AD1DCF8001021F0E071D3
:100BB00041EA0E0141F48001CCF80010002100222E
:100BC00080F85820084601B0F0BD00000068006CB5
:100BD00070470000B0B582B000210028019155D0C7
:100BE000C16D39B9044600F009F92046002121669B
:100BF00084F858100268916889004FF6C071C5F6F4
:100C0000FF7102D593680B4093609368DB002ED48C
:100C1000936801F18051194041F08051916040F298
:100C2000A401C2F20001096842F663538909C0F2C7
:100C30003E53A1FB03139909022303EB41010191E8
:100C40000199A1B1019901390191019979B10199F4
:100C500001390191019951B101990139019101992C
:100C600029B101990139019101990029EAD19168CD
:100C7000C90011D4C16D4FF0010E41F01001C165E2
:100C8000016E41F00101016608E000BF4FF0010E66
:100C9000704602B0B0BD00BF4FF0000E9368C46D47
:100CA00003F0040304F010041B19C36D68D123F48E
:100CB00081730233C3659368DB071AD140F2083CA5
:100CC0004FF600544FF60063C5F2000CCFF6FF74E8
:100CD000CFF6FF735CF804405CF803302343DB0776
:100CE00007D14368DCF8004024F47C142343CCF89B
:100CF0000030437FC46BD0E902C144EA4333194357
:100D000090F8243041EA0C01012B41EA034306D15B
:100D1000816A0024CFF6FE7404EB41410B43C46AA0
:100D200024B1016B04F4787421430B43D16844F27D
:100D30000704CFF6F07421401943D1601169436B69
:100D400021F04061194311619168090743D490F87B
:100D50003810037F490041EA8331D36844F202042A
:100D6000A3431943D160036914698BB144F4803102
:100D70001161D2F8C01043F6FF74A1430B4310E099
:100D800043F010024FF0010EC265704602B0B0BDD4
:100D900024F480311161D2F8C01043F6FF7321EAC8
:100DA0000303C2F8C03090F84010136901290FD135
:100DB00040F2FD7123EA010CD0E91134D0E913159A
:100DC00043EA0C0323431943294341F0010301E0A3
:100DD00023F0010313614169136B012923F00F0311
:100DE00002D1016A01390B431363C26D012161F322
:100DF0000102C265704602B0B0BD000070B598B087
:100E0000044600201790CDE91500CDE9130002A893
:100E100004304021FFF7FEFA2068B0F1A04F01D066
:100E200018B070BD4FF4004002904FF00050119088
:100E300002A801F0E9FE002818BFFFF797FC41F275
:100E40004C00C4F20200016813AC41F4005101608F
:100E50000168032501F40051019101990168002600
:100E600041F001010160016801F001010191019966
:100E7000016841F0020101600068214600F00200B3
:100E8000019001980F2013904FF090401495159603
:100E900000F088F94FF4A04013A961C140F200406E
:100EA000C4F60000214600F07DF918B070BD0000C6
:100EB0002DE9F04740F208390446C5F20009D9F897
:100EC0000000D4F818800D46B8F1080F00F01F0A92
:100ED00002D1082712E000BFBAF1090F00F28480A6
:100EE000012000FA0AF040F22121084200F07C8043
:100EF0002068C068C00740F07D80042700F03AFAFF
:100F000021680A683A423DD0E06D40F40070E06527
:100F1000C86810F4406F0FD1607F68B90868000797
:100F20000AD5E06D20F48070E065E06DC00403D464
:100F3000E06D40F00100E065A9F5027081420846CD
:100F400008BF4FF0A0400246BAF1090F08BF0A4699
:100F5000BAF1050F08BF0A46BAF1000F08BF0A46EA
:100F6000884208BF0246D068B8F1080F02D10820B5
:100F700003E000BF400401D40C2008600020BDE85D
:100F8000F08700BF0646681C2AD065B900F0F2F968
:100F90002168086838420FD008683842F6D0B3E7B5
:100FA00008683842B0D100F0E5F9801B2168A842FA
:100FB000F6D908683842F3D1E06D40F00400E065EE
:100FC000002084F858000320BDE8F0870868384204
:100FD0009AD10868384297D1086838427FF494AFB4
:100FE00008683842F2D08FE7D9F8000010F4604F5B
:100FF0003FF483AFE06D40F02000E0650120BDE8E4
:10100000F087000070B540F20014C5F20004D4F877
:10101000085201688968490703D490F858100129DB
:1010200002D1022070BD00BF012180F85810064691
:10103000FFF71CFB20B1002086F85800012070BD8E
:101040003168F26D40F601739A43304602F58076BE
:101050000A46A14208BF4FF0A042531AB3FA83F3E5
:101060005B0905F01F0CDB07C66502D1BCF1000F60
:1010700003D1C66D26F48016C665C66D0025F6043C
:101080004FF0000644BF066E26F0060606661C26D4
:101090000E6080F858504BB9BCF1090F18D80123E5
:1010A00003FA0CF340F22126334211D0CA689201B0
:1010B00004D5C26D012363F30D32C26588684FF613
:1010C000C072C7F6FF72104004308860002070BD07
:1010D000C16D41F48011C165D16889015CBF0020F8
:1010E00070BDC16D012262F30D31C165002070BD7C
:1010F000B0B5044690F85800012804BF0220B0BDE6
:1011000001252046032184F85850FFF7E7F928B15C
:10111000002084F858002846B0BD00BF20688168D0
:101120008268D20717D011F0020114D1816801F052
:101130000D01012926D181684FF6C072C7F6FF72F2
:101140001140023181600321016000F013F9216830
:101150008968C90708D1204650F85C1F41F2011286
:101160009143002516E000BF054602E08068C007F5
:10117000F1D000F0FFF8411B20680329F6D3816805
:10118000C907F3D0E06D012540F01000E06520466E
:1011900050F8601F41F001010160002084F8580000
:1011A0002846B0BD2DE9F04F83B00E68002E00F048
:1011B000CF8000F1200241F2004C009200F138474C
:1011C000C4F6000C06224FEAB725604508BF052289
:1011D000052D38BF4FEAB722002500274FF0000841
:1011E00001920AE00E6808F1010836FA08F207F1E8
:1011F000020705F1040500F0AB80012202FA08FEA7
:1012000016EA0E09EED0D1F804C003220CF0030B4D
:10121000ABF1010602FA07F4012E6FEA040A11D8B5
:101220008468CE6804EA0A04BE403443846044689B
:1012300024EA0E06CCF3001404FA08F426434660B0
:1012400006E000BFBBF1030F02D14FF0030B21E01A
:10125000C6688C6806EA0A06BC402643BBF1020F4A
:10126000C66017D16FF00302009B02EA580605F032
:101270001C020F2453F806C004FA02FE0C692CEA83
:101280000E0C04FA02F242EA0C029A51D1F804C0A0
:101290000CF0030B02680BFA07F302EA0A021A4386
:1012A0001CF4403F02609DD041F26003C4F202038F
:1012B0001A6840F2004E42F001021A601A68C4F245
:1012C000010E02F001020292029A28F003024FF688
:1012D000084C7244CFF6FF7C52F80C3005F00C0637
:1012E0000F24B440A343019C04FA06F6334342F8AA
:1012F0000C30DEF808204B6842EA090640F20C4C3C
:10130000DC0258BF22EA0906CEF80860C4F2010CDC
:10131000DCF800209C0242EA090658BF22EA0906CE
:10132000CCF80060DEF804209C0342EA090658BFAE
:1013300022EA0906CEF80460DEF80020DB0342EA68
:10134000090658BF22EA0906CEF800604AE700BF46
:1013500003B0BDE8F08F0000426902EA0103914347
:1013600041EA0341816170471823002A08BF2823FE
:10137000C150704740F6D440C2F200000068704788
:1013800090F84120202A03D190F84020012A01D171
:1013900002207047242280F841200268136823F05D
:1013A00001031360136823F4805313601368194317
:1013B0001160116841F001011160202180F8411095
:1013C000002180F8401000207047000090F8412074
:1013D000202A03D190F84020012A01D10220704731
:1013E000242280F841200268136823F0010313606F
:1013F000136823F4706343EA01211160116841F01E
:1014000001011160202180F84110002180F8401076
:1014100000207047002804BF0120704710B590F8E5
:10142000411031B9002180F84010044600F08AFADA
:101430002046242180F8411090E81210C3680A6801
:10144000012B22F001020A6024F070620A618A68AE
:1014500022F400428A6003D14CF400428A6009E021
:101460004CF40442022B8A6004D14A6842F40062C0
:1014700003E000BF4A6822F400624A604A6800F153
:10148000100C42F0007242F400424A60CA6822F432
:101490000042CA609CE81C101A4342EA0422CA6057
:1014A000026A42EA0C020A600A6842F001020A601B
:1014B00000212022416480F84120016380F842101D
:1014C000002010BD2DE9F04F83B0044690F8410094
:1014D000202807D10C9F4FB10D9E3EB194F84000DB
:1014E00001280BD1022003B0BDE8F08F4FF400704B
:1014F0006064012003B0BDE8F08F00BF01209A4670
:101500009346884684F84000FFF734FF216805467B
:101510008A6912044BD4222084F8410040204FF005
:10152000000984F84200C4F8449067626685C4F8F4
:10153000349049F600034A68CFF600436FF39F28C2
:101540005FFA8AF048EA00401A40DDF838C01044DB
:1015500000F50050CDF808804860204661462A46D4
:101560001E46674603F01EFAC0B92068BAF1010FA3
:1015700009D04FEA1B218162204639462A4603F0F2
:1015800011FA58B920685FFA8BF181622046402138
:1015900000223B46009503F055F948B384F840908B
:1015A000012003B0BDE8F08F88690004B3D5204660
:1015B00019212A4603F098F800289AD1FFF7DAFE9D
:1015C000401B21681A28EFD388690004ECD5606CB1
:1015D00040F020006064202084F84100002084F85E
:1015E000420084F84000012003B0BDE8F08F00BF46
:1015F000608D40F20009B0F5807FC0F2FF1909D379
:10160000206809F5105350F8041F4FF0FF0C01EA51
:1016100006020BE0B4F82AC020685FFA8CF350F899
:10162000042F324042EA034209F5923302991A43E9
:101630000A434FF0FF0B06F580680260A4F828C04B
:1016400012E000BF618D2068218550F8042FC9B2D7
:1016500002EA080242EA01414FF00072029B114384
:1016600019430160608D98B32046042100223B4657
:10167000009503F0E7F800287FF43BAF2068616A2B
:10168000406A0870606A218D01306062481E2085C2
:10169000618D01396185618D0029E3D00004E1D1BC
:1016A0002046802100223B46009503F0CBF800281D
:1016B0007FF41FAF608DB0F5807FC3D32068A4F89E
:1016C00028B050F8041F4A4601EA0801C6E700BFE7
:1016D000204639462A4603F027F900287FF409AF4F
:1016E00020682021C16142684EF60003CFF60063F6
:1016F0001A404260002084F8411084F8420084F8C7
:10170000400003B0BDE8F08F2DE9F04F81B00446F2
:1017100090F84100202807D10A9F4FB10B9E3EB19F
:1017200094F8400001280BD1022001B0BDE8F08FF1
:101730004FF400706064012001B0BDE8F08F00BF7D
:1017400001209A4691468B4684F84000FFF712FE2E
:10175000216805468A6912044DD421200C9A84F828
:10176000410040204FF0000849F6004384F8420051
:10177000C4F8448067626685C4F83480CFF60043BD
:101780006FF39F2B5FFA8AF017464A685E464BEA72
:1017900000409B46A3F580631A40104440F08070DF
:1017A00040F400504860204639462A4603F0FAF8D3
:1017B000C0B92068BAF1010F09D04FEA192181623E
:1017C000204639462A4603F0EDF858B920685FFAFA
:1017D00089F181622046802100223B46009503F07A
:1017E00031F848B384F84080012001B0BDE8F08FA3
:1017F00088690004B1D5204619212A4602F074FFF9
:10180000002898D1FFF7B6FD401B21681A28EFD3B6
:1018100088690004ECD5606C40F0200060642020F2
:1018200084F84100002084F8420084F84000012040
:1018300001B0BDE8F08F00BF608D40F20009B0F547
:10184000807FC0F2FF1909D320684FF0FF0C50F8D9
:10185000041F4B4601EA0B020DE000BFB4F82AC09A
:1018600020685FFA8CF350F8042F02EA0B0242EA78
:1018700003424FF000731A4332434FF0FF083146E2
:101880000260A4F828C011E0618D2068218550F81D
:10189000042FC9B202EA0B0242EA01414FF0007282
:1018A0001143314333460160608D78B32046394699
:1018B0002A4603F077F800287FF43DAF606A21687C
:1018C00010F8012B8A626062608D01386085208D7E
:1018D00001382085618D0029E6D00004E4D120463E
:1018E000802100223B46009502F0ACFF00287FF4E7
:1018F00022AF608DB0F5807FC6D32068A4F8288021
:1019000050F8041F4A4601EA0B01C9E72046394650
:101910002A4603F009F800287FF40DAF2068202143
:10192000C16142684EF60003CFF600631A40426080
:10193000002084F8411084F8420084F8400001B08F
:10194000BDE8F08F2DE9F04198B0044600201790D3
:10195000CDE91500CDE9130002A80430402140254F
:10196000FEF758FD206845F20041C4F200018842AC
:1019700002D018B0BDE8F08102A8029501F044F948
:10198000002818BFFEF7F2FE41F24C05C4F2020532
:10199000286813AC40F00100286028684FF0120856
:1019A00000F00100019001982868002740F0020033
:1019B00028602868042600F00200019001984FF486
:1019C000004013904FF090402146CDF85080CDE973
:1019D00015771796FFF7E6FB8020CDE9130840F254
:1019E0000040C4F600002146CDE915771796FFF7B1
:1019F000D9FBE86840F40010E860E86800F40010E3
:101A00000190019818B0BDE8F081000040F230006C
:101A100040F6D441C2F20000C2F2000140680A68F8
:101A2000104408607047000080B5032000F08CF877
:101A30000F2000F009F800281CBF012080BD00F035
:101A40002BF8002080BD0000B0B540F23005C2F296
:101A500000056968F1B1044640F2A400C2F200003A
:101A60004FF47A720068B2FBF1F1B0FBF1F001F0D3
:101A700005FF01460F2C4FF001000AD8002918BFBE
:101A8000B0BD4FF0FF302146002200F031F80020B9
:101A90002C60B0BD0120B0BD82B041F25800C4F24C
:101AA0000200816841F001018160816801F001015B
:101AB00001910199016841F080510160006800F0D6
:101AC00080500090009802B001F094B8002848BF00
:101AD000704700F01F01012202FA01F11C2202EA04
:101AE000D0004EF20012CEF200028150704700008A
:101AF00010B54EF60C5CCEF2000CDCF80030C3F3EF
:101B0000022E8EF00704042C28BF0424BEF1030328
:101B10004FF0FF3E0EFA04F438BF0023A143994072
:101B20000EFA03F39A43114300F00F0200F16043F1
:101B30000901043A03F564436244002848BF02F1F6
:101B40000C03197010BD00004EF60C51CEF20001CE
:101B50000A684FF6FF031A4060F30A2242F08060E1
:101B600040F0FD700860704701220168C0F8D02283
:101B7000002280F8C822B1F8540040F00100A1F81A
:101B80005400B1F8540040F002020020A1F85420A3
:101B90007047000010B50129044613D011BB607ACC
:101BA00048B104F097F84EF61050CEF200000168EC
:101BB00021F006010160D4F8D802BDE8104005F01C
:101BC00061BA00BFD4F8D80205F0E4FA607A0028C0
:101BD00008BF10BD4EF61050CEF20000016841F073
:101BE0000601016010BD000080B501F0070C0CEB90
:101BF0008C0C00EBCC0C0CF1100C01EB810E0906E7
:101C000000EBCE0058BF00F5A87C5AB1ACF8083004
:101C10001B0C01210A202CF8003000208CF80C103D
:101C200080BD00BF002106202CF8003000208CF879
:101C30000C1080BD01EB8102D0F8D83200EBC2005D
:101C4000426A184605F0F2B801EB8102D0F8D832AA
:101C500000EBC200D0F86421184605F03BB9000043
:101C600010B501F0070E0A464FFA81FC0EEB8E010B
:101C700000EBC10303F5A871BCF1000F48BF03F1ED
:101C8000100190F89032D209012B4A7081F800E0DF
:101C900004BF022010BD0268012380F89032044680
:101CA000104605F095FE002084F8900210BD00005B
:101CB000027901F00F03934284BF0120704710B5F1
:101CC00001F0070303EB830200EBC2024FFA81FC31
:101CD0008E4602F5A871BCF1000F48BF02F1100159
:101CE0004FEADE124A7090F890224FF0000C012A61
:101CF00081F802C00B7004BF022010BD02680123EE
:101D000080F890320446104605F0F6FE002084F874
:101D1000900210BDB0B501F007048C464FFA81FE69
:101D200004EB840100EBC10505F5A871BEF1000FBD
:101D300048BF05F110014FEADC154D700C700A61C7
:101D4000022BCB7004BF00220A7190F89022012A66
:101D500004BF0220B0BD0268012380F8903204461F
:101D6000104605F0F7FC002084F89002B0BD00009A
:101D700010B501F0070C0CEB8C0100EBC10E0068F4
:101D80000EF5A8710024CEF86421CEF86831CEF8A3
:101D90006C418EF851418EF850C105F005FF0020CE
:101DA00010BD0000027901F0070C94454FF00102CC
:101DB0002AD810B501EB810300EBC3034FFA81FE73
:101DC00003F5A8730CEB8C04C90900EBC404BEF145
:101DD000000F48BF04F11003597090F890129A70E8
:101DE000012983F800C001D102220BE00168012221
:101DF00080F8902204460846194605F0BBFE0022F2
:101E000084F89022BDE810401046704780B501F07C
:101E1000070C0CEB8C0100EBC10101F810CF00683E
:101E20004FF0010C01F1140781F824C04FF0000EAF
:101E300087E80C400B6281F801C005F0B5FE002078
:101E400080BD00002DE9F04F83B00446006806F025
:101E5000E9FA010422D4410500F1E283410400F1D2
:101E6000F183810400F10684C10400F10D840105B1
:101E700000F13084010600F14784810500F15484AB
:101E8000C00540F1DB832068B0F8441021F4807174
:101E9000A0F8441003B0BDE8F08F00BF2068B0F98F
:101EA0004410B1F1FF3F00F3C98304F5A87101911B
:101EB00004F1100148F2C005029104F5267140F6C4
:101EC0000F78009123E000BFB0F8501094F8502133
:101ED000014401EBC201B1F80634B4F8562100996F
:101EE0006FF39F23C4F86C3106F0A0FA20680188D4
:101EF00001EA080180310180204600F0C1FD00BFE9
:101F00002068B0F94410B1F1FF3F00F39783B0F8B7
:101F1000442012F00F090DD030F929104FEA490B77
:101F2000B1F1FF3F1FFA81FA2EDD5FEA0A60E7D5C3
:101F300044E100BF0188D2065ED401EA080101F540
:101F400000410180B0F85010227C084400EBC20030
:101F5000B0F80204616A6FF39F20E0620844606297
:101F600020460021FFF766FE207B0028C8D0A06A2B
:101F70000028C5D1207B216840F08000C0B2A1F8C4
:101F80004C0000202073BBE730F81B1001EA080169
:101F9000803120F81B10019A09EB890102EBC10680
:101FA000317B00297CD0F178022940F08980B0F89B
:101FB00050303178B26903445FEA4A4703EBC1030A
:101FC00000F19680B3F8067400236FF39F27D21BAD
:101FD00038BF1A46B26140F2A1805FEA4A6200F15E
:101FE000AD8030F8212002EA08022A4320F821209F
:101FF000002F40F0A480C3E00A053FF565AF09B2A9
:10200000B1F1FF3F3FF77CAF018801EA0801803161
:102010000180B0F8501094F85021014401EBC20146
:10202000B1F806346FF39F23C4F86C3193B1D4F840
:10203000641179B1B4F8562106F0F8F9D4F86401C6
:10204000D4F86C110844C4F8640120460021FFF75D
:10205000FBFD206801880A053FF552AF01F44051AD
:10206000B1F5405F3FF44CAFB0F8501000F20642BB
:10207000535A6FF39F235352D4F860313F2BC0F073
:10208000E781DE068E5A4FEA53174FF0FF3508BF3F
:1020900005EB531748F2C00546EA872361E200BF0B
:1020A000B0F850103278014401EBC201B1F8067467
:1020B0006FF39F27002F63D07169F2885BE000BF48
:1020C000317830F8212002EA08022A4320F8212042
:1020D00030F82120B0F8503000EBC101520419440F
:1020E00016D4B1F806746FF39F2747BB48E000BFD2
:1020F000B3F8027400236FF39F27D21B38BF1A4630
:10210000B2611FD95FEA4A622BD497BB38E000BFA7
:10211000B1F802746FF39F275FBB31E030F82120E4
:1021200043F60F731A404CF28003A3F500535A4054
:1021300020F821205FEA4A627FF553AF07B3716947
:10214000728918E030F8212043F60F731A404CF2E0
:102150008003A3F500535A4020F821205FEA4A6229
:10216000D3D530F8212002EA08022A4320F82120A2
:1021700037B1716932893B4606F058F901E000BF7A
:102180000027F169D6E9050239443844F1617061EC
:1021900012B13069B84209D931782046FFF754FDB1
:1021A0005FEA0A607FF5ACAE08E000BF2068314608
:1021B00005F0FAFC5FEA0A607FF5A2AE206809EB41
:1021C000890130F81B20029B03EBC10602EA0801DB
:1021D00001F5004120F81B10F178012922D1317B53
:1021E00000294FF00001B16100F02D815FEA4A61E2
:1021F00000F17E807178012900F01281002940F001
:102200002281B0F850103278084400EBC200B0F8D8
:1022100006146FF39F21A0F80614B0F8061441F4D9
:10222000004104E15FEACA511CD4B0F85020317873
:10223000024402EBC102B2F80224B3696FF39F2299
:102240009B1A4FF0000738BF3B46B36140F2FC8059
:102250007169F369114471619918F161314605F0B2
:10226000A3FC4DE6B0F850303178B5695FEA4A62B8
:1022700000EBC10754D407F2064E3EF803300022AB
:102280006FF39F23ED1A38BF1546B5617CD95FEA1D
:102290004A4708D430F821704CF2800507EA080755
:1022A0002F4320F8217096F8241048F2C005012928
:1022B00040F0A981D6E904C1D6E9075719441D4465
:1022C00067457161F56180F0FB80002F00F060814F
:1022D000BC46326286F82420737848F2C005012B90
:1022E00040F0F780B0F850302EF803C07CE100BF1A
:1022F0007178012900F09E80002940F0A480B0F898
:1023000050103278084400EBC200B0F802146FF3AA
:102310009F21A0F80214B0F8021441F4004190E0AB
:1023200007F2024939F8033000226FF39F23ED1AB8
:1023300038BF1546B5614DD95FEA4A4708D530F830
:1023400021704CF2800507EA08072F4320F821701E
:1023500096F8241048F2C005012940F05481D6E9CE
:102360000471D6E9075E19441D44BE457161F561EB
:1023700080F0CE804FF0000CBEF1000F86F824C034
:1023800040F0C9809E46C8E0737848F2C005012B32
:102390006AD0002B71D1B0F850303B44B3F80274CE
:1023A0006FF39F27A3F80274B3F8027447F4004751
:1023B000A3F80274B0F850003EF800306FF39F238A
:1023C0002EF800303EF8003043F400432EF8003081
:1023D00053E000BF737848F2C005012B54D0002BA6
:1023E0005BD1B0F8503039F803506FF39F2529F8CE
:1023F000035039F8035045F4004529F80350B0F86C
:10240000500048F2C0053844B0F806246FF39F220C
:10241000A0F80624B0F8062442F400423BE000BFD6
:10242000B0F850103278084400EBC2000021A0F848
:10243000061408E0B0F850103278084400EBC200EF
:102440000021A0F8021431782046FFF7F3FB57E58E
:10245000002B00F0858003F00107565A07EB530369
:1024600046EA832382E000BFB0F850303B44A3F833
:102470000224B0F850002EF800202046FFF7DAFBC7
:102480005FEA4A4010D5BEE0B0F8503029F803208A
:10249000B0F850003844A0F806242046FFF7CAFBE5
:1024A0005FEA4A4040F1AF80206831784CF2800307
:1024B00030F8212002EA08021A4320F82120A2E085
:1024C000A7EB0C033362737848F2C005012B3FF48D
:1024D00009AF002B40F08880B0F85030BCF13F0FBE
:1024E0003EF803706FF39F272EF803705AD35FEA0C
:1024F000CC654FEA5C173EF803504FF0FF3208BF3F
:1025000002EB5C1745EA872748F2C00568E000BF88
:10251000AEEB070CBE46C6F820C0737848F2C00583
:10252000012B2FD0002B69D1B0F85030BEF13F0FF6
:1025300039F803706FF39F2729F8037040D35FEADF
:10254000CE654FEA5E1739F803504FF0FF3208BFEF
:1025500002EB5E1745EA872748F2C0054AE000BF54
:10256000535A48F20007CFF6FF773B438B5201885E
:1025700043F60F7211404CF28002A2F58052514096
:102580000180BDE4B0F8503029F803E036E000BF28
:10259000002786F824709C46737848F2C005012B0A
:1025A00097D19FE6BCF1000F18D00CF001073EF860
:1025B000035007EB5C0745EA872748F2C00511E0A6
:1025C000BEF1000F14D00EF0010739F8035007EBED
:1025D0005E0745EA872748F2C0050DE03EF8037024
:1025E00047F400472EF8037072891FFA8CF308E055
:1025F00039F8037047F4004729F8037032891FFA4D
:102600008EF305F069FF2068317840F63F7330F8AB
:1026100021201A40A5F110035A4020F821206FE430
:102620002068B0F8441021F48061A0F844102046DE
:1026300000F0E8F994F8900201280DD103B0BDE84C
:10264000F08F00BF2068B0F8441021F48041A0F85A
:10265000441003B0BDE8F08F0120002584F89002FB
:1026600025732068002105F02FFF84F8905203B0F5
:10267000BDE8F08F2068B0F8441021F40051A0F8B4
:10268000441003B0BDE8F08F2068B0F8401021F08E
:102690000401A0F84010B0F8401021F00801A0F8A3
:1026A000401094F8C802012806D1002084F8C8021E
:1026B00020460021FFF76EFA204600F0B5F92068A9
:1026C000B0F8441021F48051A0F8441003B0BDE8E4
:1026D000F08F00BF2168B1F8400040F00800A1F879
:1026E0004000B1F8440020F40060A1F84400B1F8C3
:1026F000400040F004022046A1F8402003B0BDE8AD
:10270000F04F00F0DBB900BF2068B0F8441021F0B2
:102710008001A0F8441094F8C81299B1204603B083
:10272000BDE8F04F00F0CAB92168B1F8440020F4C8
:1027300000722046A1F8442003B0BDE8F04F00F03D
:1027400087B900BFB0F8401041F00401A0F8401074
:10275000B0F8401041F00801A0F84010012184F8C1
:10276000C812B0F854003C2101EA90022046012131
:10277000C4F8CC2203B0BDE8F04FFFF70BBA00005D
:10278000002804BF01207047F0B581B0044690F8DE
:10279000910228B9002084F89002204600F0FEF84B
:1027A000032084F89102206805F09CF994F804E075
:1027B000BEF1000F00F0E0800EF0030CBEF1040F3C
:1027C0004FF0000238D30EF0FC03A4F1A000032167
:1027D000012500BFCE1E80F8B0608E1E80F8D86044
:1027E0004E1E80F8006180F828110E1D013180F81E
:1027F000B15080F8B320C0E93022C0F8C82080F87A
:10280000D95080F8DB20C0E93A22C0F8F02080F8E7
:10281000015180F80321C0E94422C0F8182180F852
:10282000295180F82B21C0E94E22C0F84021A03068
:1028300099423146CED1F21EBCF1000F2ED004F1E8
:10284000100002EB820100EBC105012300F83120EA
:102850000021BCF1010F6B70E970C5E90411A96199
:102860001CD0551C05EB850600EBC607BCF1020F1A
:102870007B7000F83650F970C7E90411B9610DD0CA
:10288000911C01EB810200EBC203012500F832101C
:1028900000205D70D870C3E904009861BEF1000F9C
:1028A0006AD0BEF1040F4FF0000235D30EF0FC00E9
:1028B00003212346CF1E83F850718F1E83F8787151
:1028C0004F1E83F8C8110D1D013183F8512183F883
:1028D0005321C3E95822C3F8682183F8792183F88A
:1028E0007B21C3E96222C3F8902183F8A12183F8F8
:1028F000A07183F8A321C3E96C22C3F8B82183F83F
:10290000C92183F8CB21C3E97622C3F8E021A033A3
:1029100081422946CED1EA1EBCF1000F2CD004F52D
:10292000A87002EB820300EBC3070021BCF1010F8A
:10293000797000F83320F970C7E90411B9611BD030
:10294000531C03EB830700EBC706BCF1020F717049
:1029500000F83730F170C6E90411B1610CD0911C58
:1029600001EB810200EBC20300275F7000F8321018
:10297000DF70C3E904779F6194E8070005F0A4F8CD
:1029800000200121207384F89112A17A012903D13A
:102990002046FFF7E9F8002001B0F0BD10B592B075
:1029A000044601A804304021FDF734FD206845F6B7
:1029B0000041C4F20001884202D012B010BD00BF35
:1029C0004FF40050019001A800F01EF9002818BF34
:1029D000FDF7CCFE41F25800C4F20200016800226B
:1029E00041F4000101600068002100F40000009043
:1029F00000981420FFF77CF81420FFF767F812B056
:102A000010BD000010B504464079022818BFFDF73C
:102A1000ADFED4F8D802012104F050FBD4F8D8025E
:102A2000BDE8104004F0FABA10B50446407A48B147
:102A30004EF61050CEF20000016821F00601016050
:102A400003F048F9D4F8D802BDE8104004F01ABBEE
:102A5000D0F8D80204F020BB90F89022012A04BFDD
:102A60000220704710B5012280F89022017302689D
:102A70000446104605F028FD002084F8900210BDA1
:102A8000D0F8D82200F52671104604F02DBB0000C6
:102A900090F89012012904BF0220704710B5016818
:102AA000012280F890220446084605F0ABFC20681D
:102AB00005F000F8002084F8900210BD10B504461F
:102AC000D0F8D80204F066FB607A002808BF10BD79
:102AD0004EF61050CEF20000016841F00601016090
:102AE00010BD000047F21401C4F2000151F8142C8B
:102AF000B0F5007F3CD0002874D1C86E02F4C062EB
:102B000020F48070B2F5806FC8662FD151F8140C94
:102B1000012262F34A2041F8140C40F2A400C2F2F0
:102B200000000068322250434DF68362C4F21B322B
:102B3000A0FB0202900C00BF0A68520511D5421C8E
:102B40000FD00A6852050CD558B10A68520508D54D
:102B5000012806D00A68520503D50228A0F1040016
:102B6000EAD10868400544BF032070470020704741
:102B7000C86E02F4C06240F48070B2F5806FC8661F
:102B8000F4D151F8140C012262F34A2041F8140CDC
:102B900040F2A400C2F200000068322250434DF619
:102BA0008362C4F21B32A0FB0202900C0A68520539
:102BB00011D5421C0FD00A6852050CD558B10A68CD
:102BC000520508D5012806D00A68520503D5022807
:102BD000A0F10400EAD10868400544BF0320704713
:102BE000C4E700BF022060F34A2241F8142C002001
:102BF0007047000047F20800C4F20000016841F489
:102C000080410160704700002DE9F04182B0044628
:102C1000807841F288060007C4F2020602D4002040
:102C20002FE000BF56F8300C5FEAC0080BD456F80E
:102C3000300C40F0805046F8300C56F8300C00F064
:102C400080500190019847F20007C4F200073868ED
:102C500040F480703860FEF78DFB05463868C0058B
:102C600000F1D680FEF786FB401B0228F6D9032030
:102C7000B8F1000F05D456F8301C21F0805146F809
:102C8000301C2168CA0713D18A0719D44A071FD4F8
:102C90000A0725D48A062BD44A0631D40A0637D42B
:102CA000CA053DD48A0543D44A0549D457E000BF3C
:102CB0003268636822F003021A4332608A07E5D55E
:102CC0003268A36822F00C021A4332604A07DFD54B
:102CD0003268E36822F030021A4332600A07D9D51D
:102CE0003268236922F0C0021A4332608A06D3D5C3
:102CF0003268636922F440621A4332604A06CDD5D5
:102D00003268A36922F440521A4332600A06C7D5DA
:102D10003268E36922F440421A433260CA05C1D5E1
:102D20003268236A22F440321A4332608A05BBD5E6
:102D30003268636A22F440221A4332604A050ED593
:102D40003268A36A22F440121A43B3F5801F32603E
:102D500005D156F87C2C42F4801246F87C2C0A05EA
:102D60000ED53268E36A22F440021A43B3F5800FAD
:102D7000326005D156F87C2C42F4801246F87C2C47
:102D8000CA040ED53268236B22F040721A43B3F1A5
:102D9000807F326005D156F87C2C42F4801246F8D0
:102DA0007C2C8A040ED53268636B22F040621A4391
:102DB000B3F1006F326005D156F87C2C42F48012DA
:102DC00046F87C2C4A040ED53268A36B22F0406290
:102DD0001A43B3F1006F326005D156F87C2C42F4EF
:102DE000801246F87C2C09040ED53168E26B21F084
:102DF00040511143B2F1805F316005D156F87C1C1F
:102E000041F4803146F87C1C02B0BDE8F08100BF7F
:102E1000B06810F4407010D0216C88420BD0B068BC
:102E2000B16820F4407041F48031B160B16821F4A0
:102E30008031B160B060C0070CD1B068216C20F463
:102E400040700843B0600020B8F1000F3FF519AFA3
:102E500011E700BFFEF78EFA054641F2883700BF42
:102E6000B0688007E9D4FEF785FA401BB842F7D96D
:102E7000FDE600002DE9F047002863D042F2000A89
:102E8000C4F2020A0446DAF800000D4600F00F0012
:102E900088420CD2DAF8000020F00F002843CAF86C
:102EA0000000DAF8000000F00F00A8424AD12168C3
:102EB00041F20808C807C4F2020803D1880740F1AC
:102EC000D080B5E0606858F8082C022838D0032874
:102ED0003CD1920136D5D8F80420D8F8043042F21B
:102EE0000046C3F3031302F00302D8F80470013361
:102EF000C0F2F406032A04BF41F20026C0F27A06AB
:102F0000B6FBF3F2D8F80430C7F306277A43C3F3CD
:102F10004163022707EB4303B2FBF3F24BF200439A
:102F2000C0F2C4439A4259D9D8F8002012F0F00FE9
:102F300049D0890752D5A16800294FD143E000BF8D
:102F4000910305D40120BDE8F08700BF5105F9D5F4
:102F5000D8F8001001F00C0104293FD0D8F8001077
:102F600001F00C01082939D0D8F8001001F00C014B
:102F70000C2933D1D8F80410D8F8042042F20047C5
:102F8000C2F3031201F00301D8F804300132C0F299
:102F9000F407032904BF41F20027C0F27A07B7FB08
:102FA000F2F1D8F80420C3F306235943C2F3416277
:102FB000022303EB4202B1FBF2F14BF20042C0F2FA
:102FC000C44291420AD9D8F80010082262F30711CE
:102FD0004FF00109C8F8001002E000BF4FF00009EF
:102FE000D8F8001021F003010843C8F80000FEF7EC
:102FF000C1F9064641F28837D8F80000616800F050
:103000000C00B0EB810F07D0FEF7B4F9801BB8427B
:10301000F2D90320BDE8F0872168880708D4B9F108
:10302000000F1ED0D8F8000020F0F00017E000BF1D
:10303000480705D5D8F8000040F4E060C8F8000063
:10304000080706D5D8F80000072262F30D20C8F85B
:103050000000D8F80000A26820F0F0001043C8F883
:103060000000DAF8000000F00F00A8421BD9DAF8DF
:10307000000020F00F002843CAF80000FEF77AF99C
:10308000064641F2883700BFDAF8000000F00F0072
:10309000A84207D0FEF76EF9801BB842F4D903208E
:1030A000BDE8F0872168480707D5D8F80000E26836
:1030B00020F4E0601043C8F80000080708D5D8F8ED
:1030C0000000216920F4605040EAC100C8F8000007
:1030D000D8F8000042F20041C0F2F40100F00C0008
:1030E000042808462DD0D8F8000000F00C0008286D
:1030F00041F20020C0F27A0023D0D8F8002002F07C
:103100000C020C2A1CD1D8F80420D8F8043002F0A4
:103110000302C3F30313D8F804700133032A08BF72
:103120000146B1FBF3F0D8F80410C7F30627C1F34A
:1031300041610222784302EB4101B0FBF1F000E073
:103140000020D8F8001048F65602C1F30311C0F66B
:103150000002515C40F2A40201F01F0120FA01F1CB
:1031600040F23000C2F200000068C2F200021160BA
:10317000BDE8F047FEF768BC40F2A40041F2080148
:10318000C2F20000C4F202010068096848F6660253
:10319000C1F30221C0F60002515C01F01F01C840DA
:1031A0007047000040F2A40041F20801C2F20000A2
:1031B000C4F202010068096848F66602C1F3C22140
:1031C000C0F60002515C01F01F01C84070470000CA
:1031D00041F20C01C4F2020151F8040C42F2004227
:1031E000C0F2F40200F00C000428104608BF70473B
:1031F00051F8040C00F00C00082841F20020C0F245
:103200007A0025D051F8043C03F00C030C2B1CBFB2
:103210000020704780B5D1F800C00B680CF0030C9B
:10322000C3F3031E0B680EF1010EBCF1030F08BFC0
:1032300002460968B2FBFEF0C3F30623C1F3416105
:103240000222584302EB4101B0FBF1F0BDE880409F
:1032500070470000002804BF012070472DE9F041AD
:1032600082B00446007841F20006C007C4F20206AC
:103270001ED1207880073DD42078000764D42078C0
:10328000400700F187802078800600F1D980E56949
:10329000002D00F04282B06800F00C000C2840F0D5
:1032A0003181012D40F08E81012002B0BDE8F08116
:1032B000B06800F00C01F068082961D0032281F0A9
:1032C0000C0122EA00000844B0FA80F0400957D10E
:1032D00061683068B1F5803F07D0B1F5A02F40F0AC
:1032E000E38040F480203060306840F4803030600B
:1032F000E4E000BFB068F16800F00C00042871D071
:1033000001F0030180F00C0081F002010844B0FAE2
:1033100080F0400966D1E1683068002900F0E08063
:1033200040F480703060FEF725F8054630684005AF
:1033300000F10A81FEF71EF8401B0228F6D903208F
:1033400002B0BDE8F08100BF6169D6F894000029A1
:1033500000F0948040F00100C6F89400FEF70AF8EF
:10336000054600BFD6F8940080073FF588AFFEF70A
:1033700001F8401B0228F5D9032002B0BDE8F08116
:10338000306880037FF575AF606800287FF471AF07
:103390003EE000BFB06D5FEAC00808D4B06D40F0F9
:1033A0008050B065B06D00F080500190019847F2F8
:1033B0000007C4F200073868C0052DD4386840F40F
:1033C00080703860FDF7D6FF054600BF3868C0053D
:1033D00022D4FDF7CFFF401B0228F7D9032002B00B
:1033E000BDE8F0813068400501D5E06880B17068C3
:1033F000216920F0FE4040EA0160706040F2300038
:10340000C2F200000068FEF71FFB00283FF434AF53
:10341000012002B0BDE8F081A168D6F89000012932
:1034200008D0052940F0AE8040F00400C6F89000B6
:10343000D6F8900040F00100C6F89000AEE000BF62
:10344000A169D6F89800002900F0868040F00100BC
:10345000C6F89800FDF78EFF054600BFD6F8980025
:1034600080073FF514AFFDF785FF401B02284FF0A2
:103470000300F3D902B0BDE8F08100BF20F00100E5
:10348000C6F89400FDF776FF054600BFD6F8940015
:1034900080077FF5F4AEFDF76DFF401B0228F5D9DC
:1034A000032002B0BDE8F08120F480303060306845
:1034B000002920F48020306000F0BE80FDF75AFF24
:1034C000054600BF306880033FF5D3AEFDF752FFDD
:1034D000401B6428F6D9032002B0BDE8F08100BF8C
:1034E00020F480703060FDF745FF054630684005E8
:1034F0007FF5C2AEFDF73EFF401B02284FF00300F0
:10350000F4D9B7E7306820F080703060FDF732FF03
:10351000022D05460CD100BF3068800140F1B88013
:10352000FDF728FF401B02284FF00300F4D9A1E764
:103530003068800140F1EA80FDF71CFF401B022843
:103540004FF00300F4D995E77068216920F0FE4040
:1035500040EA016070608FE620F00100C6F8980034
:10356000FDF708FF054600BFD6F8980080077FF5F5
:103570008EAEFDF7FFFE401B02284FF00300F3D98B
:1035800078E700BF20F00100C6F89000D6F8900060
:10359000002920F00400C6F890005DD0FDF7EAFE97
:1035A000054641F2883700BFD6F89000800765D401
:1035B000FDF7E0FE401BB842F6D9032002B0BDE89B
:1035C000F08100BFF068216A00F003028A427FF4B4
:1035D0001FAF626A6FF00F0300F0F00103EB0212FD
:1035E00091427FF415AFA16A00F4FE42B2EB012FC5
:1035F0007FF40EAFE16A00F07842B2EBC16F7FF466
:1036000007AF226B0023CFF6E07303EA025200F407
:10361000C001A2F5001291427FF4FAAE616B4FF047
:103620007E4202EA016100F0C06001F17E41884201
:103630007FF4EEAE71E000BFFDF79CFE054600BFD3
:10364000306880037FF515AEFDF794FE401B6428BB
:103650004FF00300F4D90DE7FDF78CFE054641F26B
:10366000883700BFD6F89000800707D5FDF782FEA7
:10367000401BB8424FF00300F4D9FBE6B8F1000F4D
:103680003FF501AEB06D20F08050B065FBE500BFA6
:10369000F06848F20C01C0F29F1104F1200700EA23
:1036A000010C8ECF6FF00F00D4E90C5400EB021028
:1036B0000022CFF6E07241EA0C0102EA055208430B
:1036C000A2F500124FF07E4540EA032005EA0465AA
:1036D000104305F17E4540EAC7602843F06030683A
:1036E00040F080703060F06840F08070F060FDF76E
:1036F00041FE0446306880010FD4FDF73BFE001BFD
:1037000002284FF00300F5D9B4E600BFF0684FF689
:10371000FC71CFF6EE610840F060002002B0BDE819
:10372000F0810000002804BF01207047416A19B1F0
:1037300000210161142104E04168B1F5827F02D0CB
:103740001C2100224250B0B50025856290F85D1022
:1037500029B980F85C50044600F056F82046022152
:1037600080F85D100168D0F80CE00B68BEF5E06FE2
:1037700023F040030B6098BF01254EF40063B3F5BE
:10378000706F4FEA053C1CBF00258562D0E90154EB
:10379000D0E9043205F4827504F404442C4403F0A7
:1037A00002032344846902F00102C5691A4404F447
:1037B00000731A4405F03803056A1A4405F08003C3
:1037C000856A1A4405F400531A430A600422436AC6
:1037D0000EF4706502EA1442446B45EA0C0503F0EE
:1037E00010032A4304F008041A4322434A60CA69BA
:1037F00022F40062CA6100210122016680F85D2086
:10380000BDE8B0400846704780B586B0006843F612
:103810000002C4F2000200219042CDE90411CDE97A
:103820000211019102D006B080BD00BF41F24C00F0
:10383000C4F20200C26842F48042C260C26802F46C
:1038400080420092009A026842F002020260006820
:1038500000F00200009000984FF4204001900220F8
:10386000CDE902010520059040F200400491C4F624
:10387000000001A9FDF796FC06B080BD411E0020A6
:10388000B0EB116F1CBF012070474EF21002CEF258
:10389000000251604EF62351CEF20001F0230B706E
:1038A000072190601160704770470000704700006A
:1038B0007047000090F83C20012A04BF02207047A6
:1038C000B0B5D1E90232D1E900CE22F47C5223F422
:1038D000705343EA020448F2FF73CEF6F0730EEA27
:1038E0000302224303F5006404EA0C0442EA040CD8
:1038F0000C6903F5C05222404C6942EA0C02224393
:1039000003F5605422400C6B03F5F04323401A4347
:103910008B6940F2000CCC69CEF6FF7C0CEA034CBC
:103920001443026843F20043C4F201039A4244EA9A
:103930000C0305D042F60044C4F20104A24217D1A0
:103940004FF6FF74CDF60F4403EA040ED1E9084C9C
:10395000D1E90A310025CDF6F04505EA035343EAE3
:103960000E0324F008552B432CF000552B430B433A
:103970000021536480F83C100020B0BD7047000067
:10398000704700007047000090F83C20012A4FF07B
:1039900002024AD070B580F83D20026843F2004C24
:1039A00054689368C4F2010C42F6004E6245C4F2BA
:1039B000010E01D0724503D14D6824F470042C43EC
:1039C0004FF68F75CFF6FF550E682C4042F6FF3547
:1039D000C4F201053443AA4254600FDCB2F1804FB7
:1039E00016D040F20046C4F20006B24210D040F6B3
:1039F0000006C4F20006B2420AD00EE0724507D0BB
:103A000044F20006C4F20106B24201D0624504D17C
:103A1000896823F08003194391600121002280F816
:103A20003D1080F83C20BDE8704010467047000013
:103A300070470000002804BF0120704710B50446FD
:103A400090F83D0028B9002084F83C00204600F0A2
:103A500023F8022084F83D002068211D02F08CF933
:103A6000012084F8480084F83E0084F83F0084F880
:103A7000400084F8410084F8420084F8430084F850
:103A8000440084F8450084F8460084F8470084F830
:103A90003D00002010BD000080B584B00068B0F18A
:103AA000804F33D041F20001C4F20001884215D0AA
:103AB00042F60041C4F2010188420CD141F25800A3
:103AC000C4F20200816841F400618160806800F402
:103AD00000600390039804B080BD00BF41F258001D
:103AE000C4F202000168002241F010010160006888
:103AF000002100F01000019001983620FDF7F8FF3A
:103B0000362004B0BDE88040FDF7E0BF41F2580028
:103B1000C4F202000168002241F001010160006866
:103B2000002100F00100029002981C20FDF7E0FF48
:103B30001C2004B0BDE88040FDF7C8BF90F83D10E0
:103B400001291DD1022180F83D10016842F6FF32A3
:103B5000C868C4F20102914240F00100C86011DC63
:103B6000B1F1804F20D040F20040C4F20000814209
:103B70001AD040F60000C4F20000814214D020E0C8
:103B80000120704742F60040C4F2010081420BD090
:103B900044F20000C4F20100814205D043F200402B
:103BA000C4F2010081420CD188680722C0F20102F0
:103BB0000240062A4FF00000E3D0B2F5803F08BF74
:103BC0007047086840F0010008600020704700005E
:103BD00090F83C20012A4FF0020200F0AC8080B542
:103BE00080F83D20D0F800C08822DCF80830CFF6FD
:103BF000CE721A40CCF808200B686F2B10DD1F2204
:103C0000C0F21002934237DCB3F5005F6EDA702B1E
:103C100000F0B680B3F5805F00F08480D8E000BF8C
:103C20002F2B35DD4F2B39DC302B6FD0402B40F064
:103C3000CF80D1F804E0C968DCF82030DCF820201F
:103C400022F00102CCF82020DCF8182022F0F0024B
:103C500042EA011123F00A0242EA0E02CCF81810DF
:103C6000CCF82020DCF808104FF68872CFF6CF721F
:103C70001140473154E000BF3F21C0F210018B4298
:103C80003ADC2021C0F210018B423FD0302139E0D4
:103C9000E3B3102B3AD0202B38D099E0502B4DD0E5
:103CA000602B40F09580D1F804E0C968DCF8203042
:103CB000DCF8202022F01002CCF82020DCF81820BC
:103CC00022F4704242EA013123F0A00242EA0E12CD
:103CD000CCF81810CCF82020DCF808104FF68872C9
:103CE000CFF6CF72114067311AE000BF5CD0B3F15C
:103CF000101F0BD06CE000BF4021C0F210018B42BE
:103D000004D07021C0F210018B4261D1DCF80810A0
:103D10004FF68872CFF6CF721140194341F0070178
:103D2000CCF808100022012180F83D10002180F815
:103D30003C10BDE880401046704700BFD1F804E059
:103D4000C968DCF82030DCF8202022F00102CCF831
:103D50002020DCF8182022F0F00242EA011123F0C2
:103D60000A0242EA0E02CCF81810CCF82020DCF847
:103D700008104FF68872CFF6CF7211405731CFE757
:103D8000D1E901E3C968DCF8082043EA0E0322F414
:103D90007F4243EA01211143CCF80810DCF80810F7
:103DA00041F07701BCE700BFD1E901E3C968DCF865
:103DB000082043EA0E0322F47F4243EA0121114323
:103DC000CCF80810DCF8081041F48041A8E700BFE7
:103DD0000122A8E770470000F0B581B004460068F2
:103DE000C5680669B10717D515F0020114D06FF048
:103DF00002010161012121778069800704D02046FA
:103E0000FFF7E8FF06E000BF204600F0CBF82046B1
:103E100000F0E2FA00202077700719D515F00400B1
:103E200016D020686FF004010161022121778069BA
:103E300010F4407F04D02046FFF7CCFF06E000BF1F
:103E4000204600F0AFF8204600F0C6FA00202077A8
:103E5000300717D515F0080014D020686FF008015E
:103E6000016104212177C069800703D02046FFF754
:103E7000B1FF05E0204600F095F8204600F0ACFACE
:103E800000202077F00619D515F0100016D0206814
:103E90006FF01001016108212177C06910F4407FA3
:103EA00004D02046FFF796FF06E000BF204600F052
:103EB00079F8204600F090FA00202077F00718BF2C
:103EC00015F0010006D020686FF001010161204665
:103ED00000F084FA16F4025F05F0800718BF002F87
:103EE00002D1F00509D410E020686FF4025101619D
:103EF0002046FFF7DBFCF00507D537B120686FF4EB
:103F0000807101612046FFF7CFFC700609D515F0DE
:103F1000400006D020686FF040010161204600F0AB
:103F2000BBFAB00609D515F0200006D020686FF066
:103F3000200101612046FFF7BBFCF00209D515F412
:103F4000801006D020686FF4801101612046FFF7D1
:103F500017FDB00209D515F4001006D020686FF4E3
:103F6000001101612046FFF709FD700209D515F423
:103F7000800006D020686FF4800101612046FFF7C1
:103F800001FD30020CD515F4000009D021686FF452
:103F9000000220460A6101B0BDE8F040FFF748BDCD
:103FA00001B0F0BD7047000090F83C30012B04BF19
:103FB000022070474FEAB202052A00F2D3812DE9B0
:103FC000F041DFE812F0070035018D00E1005100FB
:103FD000870100BF03681D6A1A6AA3F1804622F0B8
:103FE00001021A621A465C6852F818CF8F68A6F56B
:103FF0009636D1F800E025F002054FEAB626072EE6
:1040000045EA07050AD80127B74017F0E50F1FBF9B
:10401000CF6825F00C0527F004073D43072E0BD889
:10402000012707FA06F616F0E50F1FBFD1E905676D
:1040300024F4407434433C434FF68C76CFF6FE763E
:104040000CEA060747EA0E075C609F614F68096942
:104050005F631D629F6947F008079F619F6927F0B2
:1040600004079F6173E100BF0368D3F820C01A6A98
:10407000A3F1804722F480321A621A46A7F59637D8
:104080005D6852F8508FD1F800E08E684FEAB7278C
:10409000072F09D80124BC4014F0E50F1EBF4C695E
:1040A00025F4803545EA04252CF4003747EA064715
:1040B0004FF68C76CFF6FE76033606EA080646EA19
:1040C0000E065D601E654E6809699E641F621F6D65
:1040D00047F008071F651F6D27F004071F6536E1CD
:1040E000036843F200461D6A1A6AC4F2010622F40C
:1040F00080721A621A46D3F804C052F81CEFB34219
:104100008E68D1F8008025F4007545EA062505D0B3
:1041100042F60046C4F20106B34207D1CE6840F22F
:10412000FF47360225F44065BE433543A3F1804680
:10413000A6F596364FEAB626072E0CD8012707FAC1
:1041400006F616F0E50F1FBFD1E905672CF44054C1
:10415000374344EA071C4FF68C74CFF6FE740EEA20
:10416000040747EA0807C3F804C0DF614F6809691C
:10417000DF631D62DF6947F00807DF61DF6927F051
:104180000407DF61E3E000BF036843F200461D6AF5
:104190001A6AC4F2010622F480521A621A46D3F84F
:1041A00004C052F81C8FB3428E68D1F800E025F4A9
:1041B000005545EA063505D042F60046C4F2010630
:1041C000B34207D1CE6844F6FF77360325F4404565
:1041D000BE433543A3F18046A6F596364FEAB62690
:1041E000072E0CD8012707FA06F616F0E50F1FBFB9
:1041F000D1E905672CF44044374344EA871C48F66C
:10420000FF44CFF6FF6404EA080444EA0E27C3F82B
:1042100004C0DF614F6809691F641D62DF6947F4EC
:104220000067DF61DF6927F48067DF618EE000BF30
:10423000036843F200461D6A1A6AC4F2010622F0BE
:1042400010021A621A465C6852F818CFB3428E68A0
:10425000D1F800E025F0200545EA061505D042F624
:104260000046C4F20106B34207D1CE686FF04007A2
:1042700025F0C00507EA06163543A3F18046A6F5EA
:1042800096364FEAB626072E0CD8012707FA06F60F
:1042900016F0E50F1FBFD1E9056724F440643E43E3
:1042A00044EA860448F6FF46CFF6FF660CEA0607A6
:1042B00047EA0E275C609F614F6809699F631D6232
:1042C0009F6947F400679F619F6927F480679F613A
:1042D0003CE000BF0368D3F820C01A6AA3F180470E
:1042E00022F480121A621A46A7F596375D6852F8D2
:1042F000508FD1F800E08E684FEAB727072F09D812
:104300000124BC4014F0E50F1EBF4C6925F4802544
:1043100045EA84252CF4001747EA065748F6FF467D
:10432000CFF6FF6606F5407606EA080646EA0E2650
:104330005D601E654E680969DE641F621F6D47F48B
:1043400000671F651F6D27F480671F6509021368EA
:10435000194311600021BDE8F041002280F83C20A3
:10436000084670470121002280F83C20084670472B
:10437000002804BF0120704710B5044690F83D00A6
:1043800028B9002084F83C00204600F023F80220E1
:1043900084F83D002068211D01F0EEFC012084F826
:1043A000480084F83E0084F83F0084F8400084F818
:1043B000410084F8420084F8430084F8440084F803
:1043C000450084F8460084F8470084F83D0000204A
:1043D00010BD0000704700007047000040F68441A7
:1043E000C2F20001884218BF704710B540F6D040B5
:1043F000C2F2000001780131CAB20A2A01700ED15E
:1044000040F200440021C4F600040170204601215E
:10441000FCF7A2FF04F580601021FCF79DFF01F07E
:10442000FFFB00F00BFB40F2884040F24821C2F253
:104430000000C2F200012822BDE8104002F06ABB71
:10444000B0B5044690F83C0001284FF0020008BFC8
:10445000B0BD012584F83C5084F83D00204601F0B1
:1044600025FD00284FF0010006D0002184F83D50C2
:1044700084F83C10B0BD00BF2068C16821F0400145
:10448000C160C16821F48041C1600020002184F82E
:104490003D5084F83C10B0BD7047000090F8841087
:1044A000012904BF022070472421C0F88810016848
:1044B0000A680B6822F0005223F001030B6000230E
:1044C00043660A602021C0F8881080F884300020FC
:1044D0007047000090F88420012A04BF0220704732
:1044E000B0B52422C0F888200268D0F864E0D2F881
:1044F00000C01368BEF1000F23F00103136093683E
:1045000023F0606341EA0301916019D093689168D8
:1045100048F6980E490FC0F6000E48F6A0051EF8A2
:104520000140C0F60005695CC3F34263E400B4FBDC
:10453000F1F11EF80340EB5CE500B5FBF3F301E09D
:1045400001210123A0F86A102021A0F86830C2F8E8
:1045500000C0C0F88810002180F884100020B0BD91
:1045600090F88420012A04BF02207047B0B52422AD
:10457000C0F888200268D0F864E0D2F800C0136860
:10458000BEF1000F23F001031360936823F0604332
:1045900041EA0301916019D09368916848F6980E3A
:1045A000490FC0F6000E48F6A0051EF80140C0F6FF
:1045B0000005695CC3F34263E400B4FBF1F11EF84B
:1045C0000340EB5CE500B5FBF3F301E001210123BF
:1045D000A0F86A102021A0F86830C2F800C0C0F826
:1045E0008810002180F884100020B0BD10B5D0B133
:1045F0000446D0F8880028B9002084F884002046BA
:1046000000F026F82420C4F888002068A16A026817
:1046100022F00102026011B1204601F0F9FC2046AF
:1046200001F020FE10B1012010BD00BF21684868D4
:1046300020F490404860886820F02A00886008686C
:1046400040F0010220460A60BDE8104001F054BD70
:1046500010B598B0044600201790CDE91500CDE9BB
:10466000130002A804304021FBF7D4FE206848F272
:104670000001C4F20001884202D018B010BD00BF92
:104680002020029002A8FEF7BFFA002818BFFCF70E
:104690006DF841F24C00C4F20200016941F00101E1
:1046A0000161016901F0010101910199016841F085
:1046B00002010160006813A900F002000190019856
:1046C0004FF440601390022014900020CDE91500B3
:1046D0000820179040F20040C4F60000FCF762FD8D
:1046E00018B010BDFEE7000070B50446006815461E
:1046F0008369DA0602D40021002266E00E4610210A
:10470000C161816989065CD4711C50D02EBBFCF755
:1047100031FE2068426894F8421083691B040BD56F
:1047200012F4804208D1202906D0416841F480412A
:104730004160FCF71FFE054620688169890605D4A3
:10474000FCF718FE401B1A28F6D328E08169890679
:10475000DDD536E08169890633D4FCF70BFE411BB9
:104760002068B142F6D9426894F8421083691B046C
:104770000CD512F4804209D1202907D0416841F4B8
:1047800080414160FCF7F6FD054600BF2068816965
:104790008906DFD4FCF7EEFD401B1A28F6D320680B
:1047A00001228169242110E08169890609D4816987
:1047B000890606D4816989065CBF81695FEA8161E7
:1047C000F2D52021C161012204218369DE0505D5CE
:1047D0004FF4807241F00101C26101225E0505D4EF
:1047E0009B050AD472B9002070BD00BF41F00801DA
:1047F0004FF480629B05C26104D541F002014FF481
:104800000072C2618269920744BF0022826282699B
:10481000D20703D1826942F00102826142684EF6FA
:104820000003CFF600631A404260606C0843606486
:10483000202084F84100002084F8420084F84000E1
:10484000012070BD2DE9F0410446006880690840F0
:10485000401AB0FA80F04009904221D1DDF818806A
:1048600015460E461F46581C27D0CFBB20460021B8
:104870004246FFF739FF002853D1FCF77BFD206843
:1048800081693140891BB1FA81F14909A9423CD0C3
:1048900080693040801BB0FA80F04009A842E5D022
:1048A0000020BDE8F08100BF206880693040801B97
:1048B000B0FA80F04009A842F2D120464FF0FF3113
:1048C0004246FFF711FF0028EED00120BDE8F0813D
:1048D00080693040801BB0FA80F04009A842DFD1E7
:1048E000204639464246FFF7FFFED0B9FCF742FDAD
:1048F000A0EB08012068B942EAD981693140891BDF
:10490000B1FA81F14909A942E2D1606C40F020007E
:104910006064202084F84100002084F8420084F87C
:1049200040000120BDE8F08170B504460068806950
:10493000800635D415460E4619B928E080698006F0
:104940002ED4204631462A46FFF7CEFE30BBFCF778
:1049500011FD411B2068B142F0D981698906EDD46F
:10496000606C40F020006064202084F8410000204A
:1049700084F8420084F84000012070BDFCF7FAFC86
:10498000206881698906EBD58069800608D42046B5
:1049900000212A46FFF7A8FE0028EFD0012070BDB5
:1049A000002070BD70B5044600688069800714D48B
:1049B00015460E46481C17D01EBB00BF20460021DE
:1049C0002A46FFF791FEB8BBFCF7D4FC206881694A
:1049D000890725D580698007F0D5002070BD00BF0C
:1049E000206880698007F8D420464FF0FF312A46BE
:1049F000FFF77AFE0028F3D0012070BD80698007A0
:104A0000EBD4204631462A46FFF76EFEA0B9FCF7EC
:104A1000B1FC411B2068B142F0D981698907EDD40E
:104A2000606C40F020006064202084F84100002089
:104A300084F8420084F84000012070BD2DE9F04F59
:104A400088B040F2442540F2000BC2F20005C2F2E9
:104A5000000B95F800909BF80600064610EA090046
:104A6000059005D09BF80E00FC218727FF2203E06C
:104A7000E421FF2798220020A8719BF8070040F24C
:104A80008A13C2F20003044610EA090083F82420C6
:104A900083F82570049083F8261009D09BF80F0046
:104AA000E87148F2FF709884FC2083F8260001E04A
:104AB0000020E8719BF80800079010EA09000390B5
:104AC00006D09BF81000FC218727FF2204E000BFDE
:104AD000E421FF279822002028729BF8090083F820
:104AE0002720069010EA090083F82870029083F8C6
:104AF000291015D09BF81100687248F2FF70A3F8D6
:104B00002700FC2083F829009BF80AA01AEA090074
:104B100001900DD09BF81200FC218727FF220BE0AB
:104B2000002068729BF80AA01AEA09000190F1D1EE
:104B3000E421FF27982200209BF80BC0A8721CEAF2
:104B4000090083F82A2083F82B70009083F82C103A
:104B500014D09BF81300E87248F2FF705885FC20CF
:104B600083F82C009BF80CE01EEA090F0DD09BF88F
:104B70001400FC218727FF220BE000BF0020E87211
:104B80009BF80CE01EEA090FF1D1E421FF279822DF
:104B900000209BF80D80287318EA090F83F82D2058
:104BA00083F82E7083F82F1014D09BF815006873CB
:104BB00048F2FF70A3F82D00FC2083F82F006F78D7
:104BC000A1463E420CD09BF81620FC218720FF24F2
:104BD0000AE000BF002068736F78A1463E42F2D120
:104BE000E421FF209824002219EA070FAA731C76FB
:104BF0005876997610D09BF81700E87348F2FF704A
:104C00001883FC209876079838420AD09BF8182021
:104C1000FC218720FF2408E00020E8730798384231
:104C2000F4D1E421FF2098240022187706982A74F2
:104C30003842DC76597711D09BF81900687448F235
:104C4000FF70A3F81B00FC2058771AEA070F0AD060
:104C50009BF81A20FC218720FF2408E000206874BC
:104C60001AEA070FF4D1E421FF20982400221CEA5D
:104C7000070FAA749C77D87783F8201012D09BF87E
:104C80001B00E87448F2FF70D883FC2083F82000F2
:104C90001EEA070F0BD09BF81C20FC218720FF2465
:104CA00009E000BF0020E8741EEA070FF3D1E421F9
:104CB000FF209824002218EA070F2A7583F8214064
:104CC00083F8220083F8231012D09BF81D0068752A
:104CD00048F2FF70A3F82100FC2083F82300AF788E
:104CE0003E420AD09BF81E20FC218720FF2408E0CA
:104CF00000206875AF783E42F4D1E421FF2098246B
:104D0000002219EA070FAA751C735873997311D002
:104D10009BF81F00E87548F2FF709881FC2098739B
:104D2000079838420BD09BF82020FC218720FF24D5
:104D300009E000BF0020E87507983842F3D1E4216C
:104D4000FF2098240022187406982A763842DC73D3
:104D5000597411D09BF82100687648F2FF70A3F8CF
:104D60000F00FC2058741AEA070F0AD09BF8222083
:104D7000FC218720FF2408E0002068761AEA070F4C
:104D8000F4D1E421FF20982400221CEA070FAA7620
:104D90009C74D874197511D09BF82300E87648F2FA
:104DA000FF705882FC2018751EEA070F0BD09BF885
:104DB0002420FC218720FF2409E000BF0020E876A2
:104DC0001EEA070FF3D1E421FF209824002218EAFD
:104DD000070F2A775C759875D97511D09BF8250057
:104DE000687748F2FF70A3F81500FC20D875EF78BB
:104DF0003E420AD09BF82620FC208721FF2408E0B1
:104E000000206877EF783E42F4D1E420FF21982417
:104E1000002219EA070FAA771C705970987011D0F8
:104E20009BF82700E87748F2FF701880FC20987004
:104E3000079838420BD09BF82820FC208721FF24BC
:104E400009E000BF0020E87707983842F3D1E4205A
:104E5000FF21982400221971069985F820203942F3
:104E6000DC70587112D09BF8290085F8210048F2B7
:104E7000FF70A3F80300FC2058711AEA070F0BD04B
:104E80009BF82A20FC208721FF2409E0002085F8D8
:104E900021001AEA070FF3D1E420FF219824002211
:104EA0001CEA070F85F822209C71D971187211D065
:104EB0009BF82B0085F8230048F2FF70D880FC2077
:104EC00018721EEA070F0BD09BF82C20FC208721BC
:104ED000FF2609E0002085F823001EEA070FF3D122
:104EE000E420FF219826002218EA070F85F82420E5
:104EF0005E729972D8720BD09BF82D0085F8250050
:104F000048F2FF70A3F80900FC20D87203E000BF4C
:104F1000002085F8250040F2222EC2F2000EBEF8D5
:104F200000009BF8008040F6C41200219BF801901D
:104F3000904298BF88460599BEF8020040F6C41317
:104F40009BF80E70002908BF0F4698424FF00001F1
:104F500098BF894604989BF80F40002808BF044674
:104F6000BEF804209BF802C09A4298BF8C46039872
:104F70009BF81020002808BF0246BEF806309BF8B8
:104F8000036040F6C410834298BF0E46029B9BF814
:104F90001110002B08BF1946BEF80830DA469BF8FE
:104FA00004B083424FF0000098BF834601989AF8FE
:104FB0001230BEF80AE0002808BF034640F6C410CD
:104FC000864569729AF805004FF0000185F8268041
:104FD000AF7185F82790EC7185F828C02A7285F8A2
:104FE000296085F82AB0AB7298BF0846009985F809
:104FF0002B009AF81300002908BF0846E87240F217
:105000002020C2F200000121017008B0BDE8F08F3D
:105010002DE9F04F85B063208DF81300480040F271
:10502000C47584B2C2F200054FF0640901260DF187
:1050300013072846214680220123CDE90076CDF8CA
:105040000890FCF761FB4FF00008284621465E22DD
:1050500001238DF81380CDE90076CDF80890FCF798
:1050600053FB284621465D2201238DF81380CDE9AC
:105070000076CDF80890FCF725FA9DF81300242857
:1050800040F0B38240F2C475C2F2000528462146C2
:105090002B2201238DF81360CDE90076CDF808901E
:1050A000FCF732FB284621462C2201238DF81360A1
:1050B000CDE90076CDF80890FCF726FB284621467E
:1050C0002D2201238DF81380CDE90076CDF80890CC
:1050D000FCF71AFB284621462E2201238DF8138067
:1050E000CDE90076CDF80890FCF70EFB2846214666
:1050F0002F2201238DF81360CDE90076CDF80890BA
:10510000FCF702FB28462146302201238DF813606C
:10511000CDE90076CDF80890FCF7F6FA4FF0FF0BDA
:1051200028462146312201238DF813B0CDE90076BF
:10513000CDF80890FCF7E8FA2846214632220123F0
:105140008DF81380CDE90076CDF80890FCF7DCFAF5
:1051500028462146332201238DF81380CDE90076BD
:10516000CDF80890FCF7D0FA2846214634220123D6
:105170008DF81380CDE90076CDF80890FCF7C4FADD
:1051800028462146352201238DF81380CDE900768B
:10519000CDF80890FCF7B8FA4FF00F0A28462146E0
:1051A000362201238DF813A0CDE90076CDF80890C2
:1051B000FCF7AAFA28462146372201238DF813A0CE
:1051C000CDE90076CDF80890FCF79EFA28462146F6
:1051D000382201238DF81380CDE90076CDF80890B0
:1051E000FCF792FA28462146392201238DF81380D4
:1051F000CDE90076CDF80890FCF786FA28462146DE
:105200003A2201238DF81360CDE90076CDF808909D
:10521000FCF77AFA284621463B2201238DF81360D9
:10522000CDE90076CDF80890FCF76EFA28462146C5
:105230003C2201238DF813B0CDE90076CDF808901B
:10524000FCF762FA284621463D2201238DF813B06F
:10525000CDE90076CDF80890FCF756FA28462146AD
:105260003E2201238DF81380CDE90076CDF8089019
:10527000FCF74AFA284621463F2201238DF8138085
:10528000CDE90076CDF80890FCF73EFA2846214695
:10529000402201238DF81380CDE90076CDF80890E7
:1052A000FCF732FA28462146412201238DF813A04B
:1052B000CDE90076CDF80890FCF726FA4FF0080B00
:1052C00028462146422201238DF813B0CDE900760D
:1052D000CDF80890FCF718FA28462146432201230E
:1052E0008DF813A0CDE90076CDF80890FCF70CFA04
:1052F00028462146442201238DF813B0CDE90076DB
:10530000CDF80890FCF700FA2846214645220123F3
:105310008DF813A0CDE90076CDF80890FCF7F4F9EC
:1053200028462146462201238DF813B0CDE90076A8
:10533000CDF80890FCF7E8F92846214647220123DA
:105340008DF813A0CDE90076CDF80890FCF7DCF9D4
:1053500028462146482201238DF813B0CDE9007676
:10536000CDF80890FCF7D0F92846214649220123C0
:105370008DF813A0CDE90076CDF80890FCF7C4F9BC
:10538000284621464A2201238DF813B0CDE9007644
:10539000CDF80890FCF7B8F9284621464B220123A6
:1053A0008DF813A0CDE90076CDF80890FCF7ACF9A4
:1053B000284621464C2201238DF813B0CDE9007612
:1053C000CDF80890FCF7A0F9284621464D2201238C
:1053D0008DF813A0CDE90076CDF80890FCF794F98C
:1053E000284621464E2201238DF813B0CDE90076E0
:1053F000CDF80890FCF788F9284621464F22012372
:105400008DF813A0CDE90076CDF80890FCF77CF973
:1054100028462146502201238DF813B0CDE90076AD
:10542000CDF80890FCF770F9284621465122012357
:105430008DF813A0CDE90076CDF80890FCF764F95B
:1054400028462146522201238DF813B0CDE900767B
:10545000CDF80890FCF758F928462146532201233D
:105460008DF813A0CDE90076CDF80890FCF74CF943
:1054700028462146542201238DF813B0CDE9007649
:10548000CDF80890FCF740F9284621465522012323
:105490008DF813A0CDE90076CDF80890FCF734F92B
:1054A00028462146562201238DF813B0CDE9007617
:1054B000CDF80890FCF728F9284621465722012309
:1054C0008DF813A0CDE90076CDF80890FCF71CF913
:1054D00028462146582201238DF813B0CDE90076E5
:1054E000CDF80890FCF710F902208DF8130028463B
:1054F000214659220123CDE90076CDF80890FCF72A
:1055000003F9284621465A2201238DF81360CDE97C
:105510000076CDF80890FCF7F7F8284621465B2284
:1055200001238DF81380CDE90076CDF80890FCF7C3
:10553000EBF83F208DF81300284621465C2201231A
:10554000CDE90076CDF80890FCF7DEF82846214634
:105550005D2201238DF81380CDE90076CDF8089007
:10556000FCF7D2F80B208DF81300284621467B2249
:105570000123CDE90076CDF80890FCF7C5F8C820E6
:105580008DF81300284621467D220123CDE90076BF
:10559000CDF80890FCF7B8F882208DF81300284663
:1055A00021467E220123CDE90076CDF80890FCF754
:1055B000ABF8B4208DF81300284621467F22012342
:1055C000CDE90076CDF80890FCF79EF8BC208DF868
:1055D0001300284621465E220123CDE90076CDF84E
:1055E0000890FCF791F84FF00108404605B0BDE87F
:1055F000F08F000010B58CB040F25870C2F200007D
:105600004FF0A04100244FF4403280E816004FF4E0
:10561000807101234FF0040C818306210B94CDE9A6
:105620000944CDE90744CDE90544CDE90344CDE97A
:105630000144C0E90344C0E9053C016280F824400C
:10564000C0E90B4480F83840C46380F84040FBF761
:10565000C1FA002818BFFBF789F840F25870C2F26F
:10566000000009A90994FBF787F8002818BFFBF789
:105670007DF80220C0F2304001900620CDE9020002
:105680007F200490042005900020069040F258707E
:10569000C2F2000001A9FBF7CBF8002818BFFBF706
:1056A00065F80420C0F6600001900C20029040F2E2
:1056B0005870C2F2000001A9FBF7BAF8002818BF21
:1056C000FBF754F80820C0F6904001901220029099
:1056D00040F25870C2F2000001A9FBF7A9F80028B7
:1056E00018BFFBF743F81020C1F2C000019018204A
:1056F000029040F25870C2F2000001A9FBF798F83E
:10570000002818BFFBF732F82020C1F2F0400190CA
:105710004FF48070029040F25870C2F2000001A96C
:10572000FBF786F8002818BFFBF720F840F60000CA
:10573000C2F6306001904FF48370029040F25870CE
:10574000C2F2000001A9FBF773F8002818BFFBF7AD
:105750000DF80CB010BD00002DE9F04F87B000240B
:1057600041F24C000694CDE90444CDE90244C4F270
:105770000200016840F2004841F020010160016828
:10578000C4F6000801F0200101910199016808F5B3
:10579000805541F0010101600168002201F0010122
:1057A000019101990168022741F00401016001683B
:1057B00001F0040101910199016841F002010160C9
:1057C0000068022100F00200019001982846FBF7D2
:1057D000CBFD4FF09040802100224FF0800AFBF774
:1057E000C3FD08F5806630464FF4416100224FF456
:1057F000416BFBF7B9FD404679210022FBF7B4FD70
:10580000029702AF4FF0010928463946CDE90394CB
:105810000594FBF7C7FC4FF090403946CDE902A94B
:10582000CDE90444FBF7BEFC30463946CDE902B968
:10583000CDE90444FBF7B6FC7920CDE902094046E6
:105840003946CDE90444FBF7ADFC07B0BDE8F08F65
:1058500080B540F2C47045F20041C2F20000C4F2CB
:10586000000141F241320023C4F262024FF0010C08
:1058700080E80E10C0E90433C0E906330362FBF789
:10588000C9FD002818BFFAF771FF40F2C470C2F2D8
:1058900000000021FBF774FD002818BFFAF766FF2F
:1058A00040F2C470C2F200000021FBF78FFD002817
:1058B00008BF80BDBDE88040FAF758BF80B540F60C
:1058C000180048F20001C2F20000C4F2000143F2E5
:1058D000243200234FF00C0CC0F2030280E80E00CB
:1058E000C0E90333C0E905C3C0E908338362FEF7AA
:1058F0007DFE002818BFFAF739FF40F61800C2F203
:1059000000000021FEF72CFE002818BFFAF72EFF3A
:1059100040F61800C2F200000021FEF7DBFD00286F
:1059200018BFFAF723FF40F61800C2F20000FEF796
:10593000B5FD002808BF80BDBDE88040FAF716BF5E
:1059400070B540F6883043F6000EC2F20000C4F293
:10595000000E4FF482720021C0E900E200F1100253
:105960004FF400434FF4E06C01244FF400752026FF
:1059700072C20722C0E9023CC0E90811C0E90A125C
:10598000C0E90C11FDF7CEFE002808BF70BDBDE8D0
:105990007040FAF7EBBE000070B5A2B042F60045C9
:1059A000002401A83421C4F201051B94CDE9194457
:1059B000CDE91644CDE91444CDE91244CDE91044B3
:1059C000CDE90E44FAF726FD40F6EC30C2F20000B5
:1059D000AA21C0E90054C0E90241C0E9044484613D
:1059E000FEF728F8002818BFFAF7C0FE4FF48050E1
:1059F000189040F6EC30C2F2000018A9FEF7E8F863
:105A0000002818BFFAF7B2FE40F6EC30C2F20000F0
:105A1000FEF7AEFC002818BFFAF7A8FE202015906C
:105A20008020179040F6EC300024C2F2000015A947
:105A30001694FDF7A9FF002818BFFAF797FE60201B
:105A4000CDE90E0440F6EC30C2F200000EA90022AF
:105A5000CDE91044CDE912441494FEF7A5FA0028CC
:105A600018BFFAF783FE00264FF4005040F6EC34DE
:105A7000CDE906064FF00070C2F20004CDE90A0637
:105A800001A920460596CDE90366CDE90166CDE979
:105A90000866CDE90C66FDF70DFF002818BFFAF780
:105AA00065FE20682196A842CDE91F661E961D96C8
:105AB00002D022B070BD00BF41F24C00C4F202001F
:105AC000016841F00101016000681DA900F00100BA
:105AD0001C901C984FF480701D9002201E90002096
